:100000000C942A000C9447000C9447000C94470071
:100010000C9447000C9447000C9447000C94470044
:100020000C9447000C9447000C9447000C94470034
:100030000C9447000C94D0030C9447000C94470098
:100040000C9447000C9447000C9447000C94470014
:100050000C94470011241FBECFE5D8E0DEBFCDBF12
:1000600010E0A0E6B0E0ECE9F9E002C005900D92E6
:10007000A836B107D9F720E0A8E6B0E001C01D928C
:10008000AA3AB207E1F70E947C040C94CC040C94C9
:100090000000672B09F09FC0009711F4D8980895CD
:1000A0008130910511F4D99808958230910511F4A9
:1000B000DA9808958330910511F4DB98089584301F
:1000C000910511F4DC9808958530910511F4DD98BF
:1000D00008958630910511F4DE98089587309105D2
:1000E00011F4DF9808958A30910511F4C0980895AD
:1000F0008B30910511F4C19808958C30910511F45D
:10010000C29808958D30910511F4C39808958E30EA
:10011000910511F4C49808958F30910511F4C59894
:1001200008958031910511F4C698089581319105A3
:1001300011F4C79808958431910511F4A898089591
:100140008531910511F4A99808958631910511F42E
:10015000AA9808958731910511F4AB9808958831D4
:10016000910511F4AC9808958931910511F4AD9879
:1001700008958A31910511F4AE9808958B31910557
:1001800011F4AF9808958E31910511F49098089567
:100190008F31910511F4919808958032910511F4F1
:1001A000929808958132910511F4939808958232BE
:1001B000910511F4949808958332910511F495985E
:1001C00008958432910511F496980895859709F061
:1001D0009FC097980895009711F4D89A0895813098
:1001E000910511F4D99A08958230910511F4DA9AA3
:1001F00008958330910511F4DB9A089584309105B8
:1002000011F4DC9A08958530910511F4DD9A089572
:100210008630910511F4DE9A08958730910511F426
:10022000DF9A08958A30910511F4C09A08958B30B1
:10023000910511F4C19A08958C30910511F4C29A78
:1002400008958D30910511F4C39A08958E3091056B
:1002500011F4C49A08958F30910511F4C59A089548
:100260008031910511F4C69A08958131910511F4F8
:10027000C79A08958431910511F4A89A089585319B
:10028000910511F4A99A08958631910511F4AA9A5D
:1002900008958731910511F4AB9A0895883191053D
:1002A00011F4AC9A08958931910511F4AD9A08952D
:1002B0008A31910511F4AE9A08958B31910511F4AC
:1002C000AF9A08958E31910511F4909A08958F3167
:1002D000910511F4919A08958032910511F4929A42
:1002E00008958132910511F4939A0895823291050F
:1002F00011F4949A08958332910511F4959A089512
:100300008432910511F4969A0895859709F4979A85
:100310000895CF93C82F80FF03C061E070E002C052
:1003200060E070E08AE090E00E944900C1FF03C0F5
:1003300061E070E002C060E070E08BE090E00E945D
:100340004900C2FF03C061E070E002C060E070E0FD
:100350008CE090E00E944900C3FF03C061E070E0C0
:1003600002C060E070E08DE090E00E944900C4FFB0
:1003700003C061E070E002C060E070E08EE090E0F9
:100380000E944900C5FF03C061E070E002C060E068
:1003900070E08FE090E00E944900C6FF03C061E07A
:1003A00070E002C060E070E080E190E00E944900EF
:1003B000C7FF03C061E070E002C060E070E081E16F
:1003C00090E0CF910C944900CF93C82F60E070E08B
:1003D0008AE190E00E9449008C2F0E94890161E02F
:1003E00070E08BE190E00E9449008FE99FE0019767
:1003F000F1F700C0000060E070E08BE190E00E9447
:1004000049008FE99FE00197F1F700C00000CF910C
:10041000089581E00C94E401813011F480E803C078
:10042000823021F480EC860F0C94E401089560E0A2
:1004300070E08AE190E00E94490060E070E08BE1AA
:1004400090E00E9449002FEF89EF90E0215080401A
:100450009040E1F700C0000080E30E94E4018FE1DA
:100460009EE40197F1F700C0000080E30E94E401E0
:100470008FE99FE00197F1F700C0000080E30E9440
:10048000E4018FE39CE90197F1F700C0000088E3E5
:100490000E94E4018CE00E94E40181E00E94E401FA
:1004A00086E00C94E401CF93C82F61E070E08AE10C
:1004B00090E00E9449008C2F0E94890161E070E069
:1004C0008BE190E00E9449008FE99FE00197F1F7EE
:1004D00000C0000060E070E08BE190E00E94490005
:1004E0008FE99FE00197F1F700C00000CF910895D8
:1004F000CF93DF93EC018991882319F00E94530276
:10050000FACFDF91CF9108958CE10C94E40188E15A
:100510000C94E401CF93C82F80FF03C061E070E02A
:1005200002C060E070E08EE090E00E944900C1FFF0
:1005300003C061E070E002C060E070E08FE090E036
:100540000E944900C2FF03C061E070E002C060E0A9
:1005500070E080E190E00E944900C3FF03C061E0C9
:1005600070E002C060E070E081E190E0CF910C9417
:100570004900CF93C82F60E070E08AE190E00E94CC
:1005800049008C2F0E948A0261E070E08BE190E0CC
:100590000E9449008FE99FE00197F1F700C0000039
:1005A00060E070E08BE190E00E9449008FE99FE0FD
:1005B0000197F1F700C00000CF91089580E00E94FC
:1005C000B90281E00C94B902CF93C62F813011F4A7
:1005D00080E803C0823069F480EC8C0F85958595A6
:1005E000859585950E94B9028C2F8F70CF910C94C0
:1005F000B902CF91089580E00E948A022FEF89EF1F
:1006000090E0215080409040E1F700C0000083E07E
:100610000E94B9028FE19EE40197F1F700C000004B
:1006200083E00E94B9028FED9BEA0197F1F700C0C9
:10063000000083E00E94B90282E00E94B90282E0D9
:100640000E94B90288E00E94B90280E00E94B902CB
:100650008CE00E94B90280E00E94B90286E00C940E
:10066000B902CF93C82F61E070E08AE190E00E9468
:1006700049008C2F85958595859585950E948A02E0
:1006800061E070E08BE190E00E9449008FE99FE01B
:100690000197F1F700C0000060E070E08BE190E0AE
:1006A0000E9449008FE99FE00197F1F700C0000028
:1006B0008C2F8F700E948A0261E070E08BE190E0E5
:1006C0000E9449008FE99FE00197F1F700C0000008
:1006D00060E070E08BE190E00E9449008FE99FE0CC
:1006E0000197F1F700C00000CF910895CF93DF93F9
:1006F000EC018991882319F00E943103FACFDF9130
:10070000CF91089581E00E94B9028CE00C94B90267
:1007100081E00E94B90288E00C94B902EF92FF9246
:100720000F931F93CF93DF937C0100E010E0C0E0B4
:10073000D0E0F70181917F010E944A04CE01019728
:10074000F1F7CE010197F1F7CE010197F1F7CE0154
:100750000197F1F70F5F1F4F0630110551F7DF9139
:10076000CF911F910F91FF90EF9008952FEF20935D
:1007700069002093680090BD89B986E880BD88E84B
:100780008AB9789408952FEF209369002093680028
:1007900090BD89B986E880BD80E98AB978940895CA
:1007A0001F920F920FB60F9211242F933F934F93E6
:1007B0008F939F93EF93FF934CB1809169008F3398
:1007C00021F480916800882371F080916900209164
:1007D0006800992787FD90950196332727FD30956E
:1007E0008217930759F4809168008F5F80936800A7
:1007F00080916800803411F4109268008091690043
:100800008F3319F41092690005C0809169008F5FE1
:1008100080936900E0916900FF27E7FDF095E659B4
:10082000FF4F4083809168008F3F11F41092680061
:10083000FF91EF919F918F914F913F912F910F9049
:100840000FBE0F901F901895809168008F3F01F1A7
:10085000E0916800FF27E7FDF095E659FF4F8081A2
:100860002091680090916900291306C09FEF909332
:100870006900909368000895909168009F5F90933D
:10088000680090916800903421F4109268000895F7
:1008900080E008955D9BFECF8CB90895809168003B
:1008A0008F3FC9F09091680080916900981734F4E7
:1008B00080916900909168008F5F0BC090916800F3
:1008C0008091690089174CF48091690090916800CB
:1008D0008F5B891B089580E0089581E00895CF9390
:1008E000DF93EC018991882319F00E944A04FACF22
:1008F000DF91CF910C944A04CF93DF93CDB7DEB74D
:1009000027970FB6F894DEBF0FBECDBF1FEF17BB02
:1009100014BB11BB1ABB87E0E0E6F0E0DE011196E4
:1009200001900D928A95E1F70E94170281E80E94DA
:10093000E40184B314BB88E08BBB80EA91E00E94A1
:10094000B603CE0101960E948E0380EA91E00E94D8
:10095000C30300E010E00E944E048823E1F30E94EC
:100960002404833519F00130110569F4E1E0F0E069
:10097000EC0FFD1FEE0DFF1D80839FEFE91AF90AB2
:1009800001E010E002C000E010E0853421F7CE0164
:0C09900001960E947802D1CFF894FFCFAE
:08099C005341424344450000B1
:00000001FF
