:100000000C942A000C943C000C943C000C943C0092
:100010000C943C000C943C000C943C000C943C0070
:100020000C943C000C943C000C943C000C943C0060
:100030000C943C000C944B000C943C000C943C0041
:100040000C943C000C943C000C943C000C943C0040
:100050000C943C0011241FBECFE5D8E0DEBFCDBF1D
:1000600020E0A0E6B0E001C01D92A23AB207E1F79D
:100070000E94F7000C9419010C9400002FEF2093BC
:1000800061002093600090BD89B986E880BD88E852
:100090008AB9789408951F920F920FB60F92112487
:1000A0002F933F934F938F939F93EF93FF934CB175
:1000B000809161008F3321F480916000882371F07A
:1000C0008091610020916000992787FD90950196AD
:1000D000332727FD30958217930759F480916000EC
:1000E0008F5F8093600080916000803411F41092E3
:1000F0006000809161008F3319F41092610005C097
:10010000809161008F5F80936100E0916100FF2723
:10011000E7FDF095EE59FF4F4083809160008F3FDF
:1001200011F410926000FF91EF919F918F914F9188
:100130003F912F910F900FBE0F901F9018958091B7
:1001400060008F3F01F1E0916000FF27E7FDF0952F
:10015000EE59FF4F8081209160009091610029133A
:1001600006C09FEF90936100909360000895909176
:1001700060009F5F9093600090916000903421F444
:1001800010926000089580E008955D9BFECF8CB9C9
:100190000895809160008F3FC9F090916000809138
:1001A0006100981734F480916100909160008F5F36
:1001B0000BC0909160008091610089174CF4809190
:1001C0006100909160008F5B891B089580E0089525
:1001D00081E00895CF93DF93EC018991882319F092
:1001E0000E94C500FACFDF91CF910C94C50080EA40
:1001F00091E00E943E00C0E0D0E08AE40E94C50089
:1002000081E40E94C50082E40E94C50083E40E944C
:10021000C5008AE50E94C500CE010197F1F7CE0125
:100220000197F1F7CE010197F1F7CE010197F1F7B0
:06023000E4CFF894FFCFBB
:00000001FF
